{
  "_format": "hh-sol-artifact-1",
  "contractName": "Dappcord",
  "sourceName": "contracts/Dappcord.sol",
  "abi": [
    {
      "inputs": [
        {
          "internalType": "string",
          "name": "_name",
          "type": "string"
        },
        {
          "internalType": "string",
          "name": "_symbol",
          "type": "string"
        }
      ],
      "stateMutability": "nonpayable",
      "type": "constructor"
    },
    {
      "anonymous": false,
      "inputs": [
        {
          "indexed": true,
          "internalType": "address",
          "name": "owner",
          "type": "address"
        },
        {
          "indexed": true,
          "internalType": "address",
          "name": "approved",
          "type": "address"
        },
        {
          "indexed": true,
          "internalType": "uint256",
          "name": "tokenId",
          "type": "uint256"
        }
      ],
      "name": "Approval",
      "type": "event"
    },
    {
      "anonymous": false,
      "inputs": [
        {
          "indexed": true,
          "internalType": "address",
          "name": "owner",
          "type": "address"
        },
        {
          "indexed": true,
          "internalType": "address",
          "name": "operator",
          "type": "address"
        },
        {
          "indexed": false,
          "internalType": "bool",
          "name": "approved",
          "type": "bool"
        }
      ],
      "name": "ApprovalForAll",
      "type": "event"
    },
    {
      "anonymous": false,
      "inputs": [
        {
          "indexed": true,
          "internalType": "address",
          "name": "from",
          "type": "address"
        },
        {
          "indexed": true,
          "internalType": "address",
          "name": "to",
          "type": "address"
        },
        {
          "indexed": true,
          "internalType": "uint256",
          "name": "tokenId",
          "type": "uint256"
        }
      ],
      "name": "Transfer",
      "type": "event"
    },
    {
      "inputs": [
        {
          "internalType": "address",
          "name": "to",
          "type": "address"
        },
        {
          "internalType": "uint256",
          "name": "tokenId",
          "type": "uint256"
        }
      ],
      "name": "approve",
      "outputs": [],
      "stateMutability": "nonpayable",
      "type": "function"
    },
    {
      "inputs": [
        {
          "internalType": "address",
          "name": "owner",
          "type": "address"
        }
      ],
      "name": "balanceOf",
      "outputs": [
        {
          "internalType": "uint256",
          "name": "",
          "type": "uint256"
        }
      ],
      "stateMutability": "view",
      "type": "function"
    },
    {
      "inputs": [
        {
          "internalType": "uint256",
          "name": "",
          "type": "uint256"
        }
      ],
      "name": "channels",
      "outputs": [
        {
          "internalType": "uint256",
          "name": "id",
          "type": "uint256"
        },
        {
          "internalType": "string",
          "name": "name",
          "type": "string"
        },
        {
          "internalType": "uint256",
          "name": "cost",
          "type": "uint256"
        }
      ],
      "stateMutability": "view",
      "type": "function"
    },
    {
      "inputs": [
        {
          "internalType": "string",
          "name": "_name",
          "type": "string"
        },
        {
          "internalType": "uint256",
          "name": "_cost",
          "type": "uint256"
        }
      ],
      "name": "createChannel",
      "outputs": [],
      "stateMutability": "nonpayable",
      "type": "function"
    },
    {
      "inputs": [
        {
          "internalType": "uint256",
          "name": "tokenId",
          "type": "uint256"
        }
      ],
      "name": "getApproved",
      "outputs": [
        {
          "internalType": "address",
          "name": "",
          "type": "address"
        }
      ],
      "stateMutability": "view",
      "type": "function"
    },
    {
      "inputs": [
        {
          "internalType": "uint256",
          "name": "_id",
          "type": "uint256"
        }
      ],
      "name": "getChannel",
      "outputs": [
        {
          "components": [
            {
              "internalType": "uint256",
              "name": "id",
              "type": "uint256"
            },
            {
              "internalType": "string",
              "name": "name",
              "type": "string"
            },
            {
              "internalType": "uint256",
              "name": "cost",
              "type": "uint256"
            }
          ],
          "internalType": "struct Dappcord.Channel",
          "name": "",
          "type": "tuple"
        }
      ],
      "stateMutability": "view",
      "type": "function"
    },
    {
      "inputs": [
        {
          "internalType": "address",
          "name": "owner",
          "type": "address"
        },
        {
          "internalType": "address",
          "name": "operator",
          "type": "address"
        }
      ],
      "name": "isApprovedForAll",
      "outputs": [
        {
          "internalType": "bool",
          "name": "",
          "type": "bool"
        }
      ],
      "stateMutability": "view",
      "type": "function"
    },
    {
      "inputs": [],
      "name": "name",
      "outputs": [
        {
          "internalType": "string",
          "name": "",
          "type": "string"
        }
      ],
      "stateMutability": "view",
      "type": "function"
    },
    {
      "inputs": [],
      "name": "owner",
      "outputs": [
        {
          "internalType": "address",
          "name": "",
          "type": "address"
        }
      ],
      "stateMutability": "view",
      "type": "function"
    },
    {
      "inputs": [
        {
          "internalType": "uint256",
          "name": "tokenId",
          "type": "uint256"
        }
      ],
      "name": "ownerOf",
      "outputs": [
        {
          "internalType": "address",
          "name": "",
          "type": "address"
        }
      ],
      "stateMutability": "view",
      "type": "function"
    },
    {
      "inputs": [
        {
          "internalType": "address",
          "name": "from",
          "type": "address"
        },
        {
          "internalType": "address",
          "name": "to",
          "type": "address"
        },
        {
          "internalType": "uint256",
          "name": "tokenId",
          "type": "uint256"
        }
      ],
      "name": "safeTransferFrom",
      "outputs": [],
      "stateMutability": "nonpayable",
      "type": "function"
    },
    {
      "inputs": [
        {
          "internalType": "address",
          "name": "from",
          "type": "address"
        },
        {
          "internalType": "address",
          "name": "to",
          "type": "address"
        },
        {
          "internalType": "uint256",
          "name": "tokenId",
          "type": "uint256"
        },
        {
          "internalType": "bytes",
          "name": "data",
          "type": "bytes"
        }
      ],
      "name": "safeTransferFrom",
      "outputs": [],
      "stateMutability": "nonpayable",
      "type": "function"
    },
    {
      "inputs": [
        {
          "internalType": "address",
          "name": "operator",
          "type": "address"
        },
        {
          "internalType": "bool",
          "name": "approved",
          "type": "bool"
        }
      ],
      "name": "setApprovalForAll",
      "outputs": [],
      "stateMutability": "nonpayable",
      "type": "function"
    },
    {
      "inputs": [
        {
          "internalType": "bytes4",
          "name": "interfaceId",
          "type": "bytes4"
        }
      ],
      "name": "supportsInterface",
      "outputs": [
        {
          "internalType": "bool",
          "name": "",
          "type": "bool"
        }
      ],
      "stateMutability": "view",
      "type": "function"
    },
    {
      "inputs": [],
      "name": "symbol",
      "outputs": [
        {
          "internalType": "string",
          "name": "",
          "type": "string"
        }
      ],
      "stateMutability": "view",
      "type": "function"
    },
    {
      "inputs": [
        {
          "internalType": "uint256",
          "name": "tokenId",
          "type": "uint256"
        }
      ],
      "name": "tokenURI",
      "outputs": [
        {
          "internalType": "string",
          "name": "",
          "type": "string"
        }
      ],
      "stateMutability": "view",
      "type": "function"
    },
    {
      "inputs": [],
      "name": "totalChannels",
      "outputs": [
        {
          "internalType": "uint256",
          "name": "",
          "type": "uint256"
        }
      ],
      "stateMutability": "view",
      "type": "function"
    },
    {
      "inputs": [
        {
          "internalType": "address",
          "name": "from",
          "type": "address"
        },
        {
          "internalType": "address",
          "name": "to",
          "type": "address"
        },
        {
          "internalType": "uint256",
          "name": "tokenId",
          "type": "uint256"
        }
      ],
      "name": "transferFrom",
      "outputs": [],
      "stateMutability": "nonpayable",
      "type": "function"
    }
  ],
  "bytecode": "0x60806040523480156200001157600080fd5b50604051620030f3380380620030f383398181016040528101906200003791906200023b565b818181600090816200004a91906200050b565b5080600190816200005c91906200050b565b50505033600660006101000a81548173ffffffffffffffffffffffffffffffffffffffff021916908373ffffffffffffffffffffffffffffffffffffffff1602179055505050620005f2565b6000604051905090565b600080fd5b600080fd5b600080fd5b600080fd5b6000601f19601f8301169050919050565b7f4e487b7100000000000000000000000000000000000000000000000000000000600052604160045260246000fd5b6200011182620000c6565b810181811067ffffffffffffffff82111715620001335762000132620000d7565b5b80604052505050565b600062000148620000a8565b905062000156828262000106565b919050565b600067ffffffffffffffff821115620001795762000178620000d7565b5b6200018482620000c6565b9050602081019050919050565b60005b83811015620001b157808201518184015260208101905062000194565b60008484015250505050565b6000620001d4620001ce846200015b565b6200013c565b905082815260208101848484011115620001f357620001f2620000c1565b5b6200020084828562000191565b509392505050565b600082601f83011262000220576200021f620000bc565b5b815162000232848260208601620001bd565b91505092915050565b60008060408385031215620002555762000254620000b2565b5b600083015167ffffffffffffffff811115620002765762000275620000b7565b5b620002848582860162000208565b925050602083015167ffffffffffffffff811115620002a857620002a7620000b7565b5b620002b68582860162000208565b9150509250929050565b600081519050919050565b7f4e487b7100000000000000000000000000000000000000000000000000000000600052602260045260246000fd5b600060028204905060018216806200031357607f821691505b602082108103620003295762000328620002cb565b5b50919050565b60008190508160005260206000209050919050565b60006020601f8301049050919050565b600082821b905092915050565b600060088302620003937fffffffffffffffffffffffffffffffffffffffffffffffffffffffffffffffff8262000354565b6200039f868362000354565b95508019841693508086168417925050509392505050565b6000819050919050565b6000819050919050565b6000620003ec620003e6620003e084620003b7565b620003c1565b620003b7565b9050919050565b6000819050919050565b6200040883620003cb565b620004206200041782620003f3565b84845462000361565b825550505050565b600090565b6200043762000428565b62000444818484620003fd565b505050565b5b818110156200046c57620004606000826200042d565b6001810190506200044a565b5050565b601f821115620004bb5762000485816200032f565b620004908462000344565b81016020851015620004a0578190505b620004b8620004af8562000344565b83018262000449565b50505b505050565b600082821c905092915050565b6000620004e060001984600802620004c0565b1980831691505092915050565b6000620004fb8383620004cd565b9150826002028217905092915050565b6200051682620002c0565b67ffffffffffffffff811115620005325762000531620000d7565b5b6200053e8254620002fa565b6200054b82828562000470565b600060209050601f8311600181146200058357600084156200056e578287015190505b6200057a8582620004ed565b865550620005ea565b601f19841662000593866200032f565b60005b82811015620005bd5784890151825560018201915060208501945060208101905062000596565b86831015620005dd5784890151620005d9601f891682620004cd565b8355505b6001600288020188555050505b505050505050565b612af180620006026000396000f3fe608060405234801561001057600080fd5b50600436106101165760003560e01c80637734a9f6116100a2578063a22cb46511610071578063a22cb465146102f3578063b88d4fde1461030f578063c87b56dd1461032b578063e5949b5d1461035b578063e985e9c51461038d57610116565b80637734a9f61461027d5780638da5cb5b1461029b57806395d89b41146102b9578063a14865cd146102d757610116565b806310df54a0116100e957806310df54a0146101b557806323b872dd146101e557806342842e0e146102015780636352211e1461021d57806370a082311461024d57610116565b806301ffc9a71461011b57806306fdde031461014b578063081812fc14610169578063095ea7b314610199575b600080fd5b61013560048036038101906101309190611962565b6103bd565b60405161014291906119aa565b60405180910390f35b61015361049f565b6040516101609190611a55565b60405180910390f35b610183600480360381019061017e9190611aad565b610531565b6040516101909190611b1b565b60405180910390f35b6101b360048036038101906101ae9190611b62565b610577565b005b6101cf60048036038101906101ca9190611aad565b61068e565b6040516101dc9190611c4b565b60405180910390f35b6101ff60048036038101906101fa9190611c6d565b610761565b005b61021b60048036038101906102169190611c6d565b6107c1565b005b61023760048036038101906102329190611aad565b6107e1565b6040516102449190611b1b565b60405180910390f35b61026760048036038101906102629190611cc0565b610867565b6040516102749190611cfc565b60405180910390f35b61028561091e565b6040516102929190611cfc565b60405180910390f35b6102a3610924565b6040516102b09190611b1b565b60405180910390f35b6102c161094a565b6040516102ce9190611a55565b60405180910390f35b6102f160048036038101906102ec9190611e4c565b6109dc565b005b61030d60048036038101906103089190611ed4565b610a57565b005b61032960048036038101906103249190611fb5565b610a6d565b005b61034560048036038101906103409190611aad565b610acf565b6040516103529190611a55565b60405180910390f35b61037560048036038101906103709190611aad565b610b37565b60405161038493929190612038565b60405180910390f35b6103a760048036038101906103a29190612076565b610be9565b6040516103b491906119aa565b60405180910390f35b60007f80ac58cd000000000000000000000000000000000000000000000000000000007bffffffffffffffffffffffffffffffffffffffffffffffffffffffff1916827bffffffffffffffffffffffffffffffffffffffffffffffffffffffff1916148061048857507f5b5e139f000000000000000000000000000000000000000000000000000000007bffffffffffffffffffffffffffffffffffffffffffffffffffffffff1916827bffffffffffffffffffffffffffffffffffffffffffffffffffffffff1916145b80610498575061049782610c7d565b5b9050919050565b6060600080546104ae906120e5565b80601f01602080910402602001604051908101604052809291908181526020018280546104da906120e5565b80156105275780601f106104fc57610100808354040283529160200191610527565b820191906000526020600020905b81548152906001019060200180831161050a57829003601f168201915b5050505050905090565b600061053c82610ce7565b6004600083815260200190815260200160002060009054906101000a900473ffffffffffffffffffffffffffffffffffffffff169050919050565b6000610582826107e1565b90508073ffffffffffffffffffffffffffffffffffffffff168373ffffffffffffffffffffffffffffffffffffffff16036105f2576040517f08c379a00000000000000000000000000000000000000000000000000000000081526004016105e990612188565b60405180910390fd5b8073ffffffffffffffffffffffffffffffffffffffff16610611610d32565b73ffffffffffffffffffffffffffffffffffffffff161480610640575061063f8161063a610d32565b610be9565b5b61067f576040517f08c379a00000000000000000000000000000000000000000000000000000000081526004016106769061221a565b60405180910390fd5b6106898383610d3a565b505050565b6106966118d5565b60086000838152602001908152602001600020604051806060016040529081600082015481526020016001820180546106ce906120e5565b80601f01602080910402602001604051908101604052809291908181526020018280546106fa906120e5565b80156107475780601f1061071c57610100808354040283529160200191610747565b820191906000526020600020905b81548152906001019060200180831161072a57829003601f168201915b505050505081526020016002820154815250509050919050565b61077261076c610d32565b82610df3565b6107b1576040517f08c379a00000000000000000000000000000000000000000000000000000000081526004016107a8906122ac565b60405180910390fd5b6107bc838383610e88565b505050565b6107dc83838360405180602001604052806000815250610a6d565b505050565b6000806107ed83611181565b9050600073ffffffffffffffffffffffffffffffffffffffff168173ffffffffffffffffffffffffffffffffffffffff160361085e576040517f08c379a000000000000000000000000000000000000000000000000000000000815260040161085590612318565b60405180910390fd5b80915050919050565b60008073ffffffffffffffffffffffffffffffffffffffff168273ffffffffffffffffffffffffffffffffffffffff16036108d7576040517f08c379a00000000000000000000000000000000000000000000000000000000081526004016108ce906123aa565b60405180910390fd5b600360008373ffffffffffffffffffffffffffffffffffffffff1673ffffffffffffffffffffffffffffffffffffffff168152602001908152602001600020549050919050565b60075481565b600660009054906101000a900473ffffffffffffffffffffffffffffffffffffffff1681565b606060018054610959906120e5565b80601f0160208091040260200160405190810160405280929190818152602001828054610985906120e5565b80156109d25780601f106109a7576101008083540402835291602001916109d2565b820191906000526020600020905b8154815290600101906020018083116109b557829003601f168201915b5050505050905090565b600760008154809291906109ef906123f9565b91905055506040518060600160405280600754815260200183815260200182815250600860006007548152602001908152602001600020600082015181600001556020820151816001019081610a4591906125ed565b50604082015181600201559050505050565b610a69610a62610d32565b83836111be565b5050565b610a7e610a78610d32565b83610df3565b610abd576040517f08c379a0000000000000000000000000000000000000000000000000000000008152600401610ab4906122ac565b60405180910390fd5b610ac98484848461132a565b50505050565b6060610ada82610ce7565b6000610ae4611386565b90506000815111610b045760405180602001604052806000815250610b2f565b80610b0e8461139d565b604051602001610b1f9291906126fb565b6040516020818303038152906040525b915050919050565b6008602052806000526040600020600091509050806000015490806001018054610b60906120e5565b80601f0160208091040260200160405190810160405280929190818152602001828054610b8c906120e5565b8015610bd95780601f10610bae57610100808354040283529160200191610bd9565b820191906000526020600020905b815481529060010190602001808311610bbc57829003601f168201915b5050505050908060020154905083565b6000600560008473ffffffffffffffffffffffffffffffffffffffff1673ffffffffffffffffffffffffffffffffffffffff16815260200190815260200160002060008373ffffffffffffffffffffffffffffffffffffffff1673ffffffffffffffffffffffffffffffffffffffff16815260200190815260200160002060009054906101000a900460ff16905092915050565b60007f01ffc9a7000000000000000000000000000000000000000000000000000000007bffffffffffffffffffffffffffffffffffffffffffffffffffffffff1916827bffffffffffffffffffffffffffffffffffffffffffffffffffffffff1916149050919050565b610cf08161146b565b610d2f576040517f08c379a0000000000000000000000000000000000000000000000000000000008152600401610d2690612318565b60405180910390fd5b50565b600033905090565b816004600083815260200190815260200160002060006101000a81548173ffffffffffffffffffffffffffffffffffffffff021916908373ffffffffffffffffffffffffffffffffffffffff160217905550808273ffffffffffffffffffffffffffffffffffffffff16610dad836107e1565b73ffffffffffffffffffffffffffffffffffffffff167f8c5be1e5ebec7d5bd14f71427d1e84f3dd0314c0f7b2291e5b200ac8c7c3b92560405160405180910390a45050565b600080610dff836107e1565b90508073ffffffffffffffffffffffffffffffffffffffff168473ffffffffffffffffffffffffffffffffffffffff161480610e415750610e408185610be9565b5b80610e7f57508373ffffffffffffffffffffffffffffffffffffffff16610e6784610531565b73ffffffffffffffffffffffffffffffffffffffff16145b91505092915050565b8273ffffffffffffffffffffffffffffffffffffffff16610ea8826107e1565b73ffffffffffffffffffffffffffffffffffffffff1614610efe576040517f08c379a0000000000000000000000000000000000000000000000000000000008152600401610ef590612791565b60405180910390fd5b600073ffffffffffffffffffffffffffffffffffffffff168273ffffffffffffffffffffffffffffffffffffffff1603610f6d576040517f08c379a0000000000000000000000000000000000000000000000000000000008152600401610f6490612823565b60405180910390fd5b610f7a83838360016114ac565b8273ffffffffffffffffffffffffffffffffffffffff16610f9a826107e1565b73ffffffffffffffffffffffffffffffffffffffff1614610ff0576040517f08c379a0000000000000000000000000000000000000000000000000000000008152600401610fe790612791565b60405180910390fd5b6004600082815260200190815260200160002060006101000a81549073ffffffffffffffffffffffffffffffffffffffff02191690556001600360008573ffffffffffffffffffffffffffffffffffffffff1673ffffffffffffffffffffffffffffffffffffffff168152602001908152602001600020600082825403925050819055506001600360008473ffffffffffffffffffffffffffffffffffffffff1673ffffffffffffffffffffffffffffffffffffffff16815260200190815260200160002060008282540192505081905550816002600083815260200190815260200160002060006101000a81548173ffffffffffffffffffffffffffffffffffffffff021916908373ffffffffffffffffffffffffffffffffffffffff160217905550808273ffffffffffffffffffffffffffffffffffffffff168473ffffffffffffffffffffffffffffffffffffffff167fddf252ad1be2c89b69c2b068fc378daa952ba7f163c4a11628f55a4df523b3ef60405160405180910390a461117c83838360016115d2565b505050565b60006002600083815260200190815260200160002060009054906101000a900473ffffffffffffffffffffffffffffffffffffffff169050919050565b8173ffffffffffffffffffffffffffffffffffffffff168373ffffffffffffffffffffffffffffffffffffffff160361122c576040517f08c379a00000000000000000000000000000000000000000000000000000000081526004016112239061288f565b60405180910390fd5b80600560008573ffffffffffffffffffffffffffffffffffffffff1673ffffffffffffffffffffffffffffffffffffffff16815260200190815260200160002060008473ffffffffffffffffffffffffffffffffffffffff1673ffffffffffffffffffffffffffffffffffffffff16815260200190815260200160002060006101000a81548160ff0219169083151502179055508173ffffffffffffffffffffffffffffffffffffffff168373ffffffffffffffffffffffffffffffffffffffff167f17307eab39ab6107e8899845ad3d59bd9653f200f220920489ca2b5937696c318360405161131d91906119aa565b60405180910390a3505050565b611335848484610e88565b611341848484846115d8565b611380576040517f08c379a000000000000000000000000000000000000000000000000000000000815260040161137790612921565b60405180910390fd5b50505050565b606060405180602001604052806000815250905090565b6060600060016113ac8461175f565b01905060008167ffffffffffffffff8111156113cb576113ca611d21565b5b6040519080825280601f01601f1916602001820160405280156113fd5781602001600182028036833780820191505090505b509050600082602001820190505b600115611460578080600190039150507f3031323334353637383961626364656600000000000000000000000000000000600a86061a8153600a858161145457611453612941565b5b0494506000850361140b575b819350505050919050565b60008073ffffffffffffffffffffffffffffffffffffffff1661148d83611181565b73ffffffffffffffffffffffffffffffffffffffff1614159050919050565b60018111156115cc57600073ffffffffffffffffffffffffffffffffffffffff168473ffffffffffffffffffffffffffffffffffffffff16146115405780600360008673ffffffffffffffffffffffffffffffffffffffff1673ffffffffffffffffffffffffffffffffffffffff16815260200190815260200160002060008282546115389190612970565b925050819055505b600073ffffffffffffffffffffffffffffffffffffffff168373ffffffffffffffffffffffffffffffffffffffff16146115cb5780600360008573ffffffffffffffffffffffffffffffffffffffff1673ffffffffffffffffffffffffffffffffffffffff16815260200190815260200160002060008282546115c391906129a4565b925050819055505b5b50505050565b50505050565b60006115f98473ffffffffffffffffffffffffffffffffffffffff166118b2565b15611752578373ffffffffffffffffffffffffffffffffffffffff1663150b7a02611622610d32565b8786866040518563ffffffff1660e01b81526004016116449493929190612a2d565b6020604051808303816000875af192505050801561168057506040513d601f19601f8201168201806040525081019061167d9190612a8e565b60015b611702573d80600081146116b0576040519150601f19603f3d011682016040523d82523d6000602084013e6116b5565b606091505b5060008151036116fa576040517f08c379a00000000000000000000000000000000000000000000000000000000081526004016116f190612921565b60405180910390fd5b805181602001fd5b63150b7a0260e01b7bffffffffffffffffffffffffffffffffffffffffffffffffffffffff1916817bffffffffffffffffffffffffffffffffffffffffffffffffffffffff191614915050611757565b600190505b949350505050565b600080600090507a184f03e93ff9f4daa797ed6e38ed64bf6a1f01000000000000000083106117bd577a184f03e93ff9f4daa797ed6e38ed64bf6a1f01000000000000000083816117b3576117b2612941565b5b0492506040810190505b6d04ee2d6d415b85acef810000000083106117fa576d04ee2d6d415b85acef810000000083816117f0576117ef612941565b5b0492506020810190505b662386f26fc10000831061182957662386f26fc10000838161181f5761181e612941565b5b0492506010810190505b6305f5e1008310611852576305f5e100838161184857611847612941565b5b0492506008810190505b612710831061187757612710838161186d5761186c612941565b5b0492506004810190505b6064831061189a57606483816118905761188f612941565b5b0492506002810190505b600a83106118a9576001810190505b80915050919050565b6000808273ffffffffffffffffffffffffffffffffffffffff163b119050919050565b60405180606001604052806000815260200160608152602001600081525090565b6000604051905090565b600080fd5b600080fd5b60007fffffffff0000000000000000000000000000000000000000000000000000000082169050919050565b61193f8161190a565b811461194a57600080fd5b50565b60008135905061195c81611936565b92915050565b60006020828403121561197857611977611900565b5b60006119868482850161194d565b91505092915050565b60008115159050919050565b6119a48161198f565b82525050565b60006020820190506119bf600083018461199b565b92915050565b600081519050919050565b600082825260208201905092915050565b60005b838110156119ff5780820151818401526020810190506119e4565b60008484015250505050565b6000601f19601f8301169050919050565b6000611a27826119c5565b611a3181856119d0565b9350611a418185602086016119e1565b611a4a81611a0b565b840191505092915050565b60006020820190508181036000830152611a6f8184611a1c565b905092915050565b6000819050919050565b611a8a81611a77565b8114611a9557600080fd5b50565b600081359050611aa781611a81565b92915050565b600060208284031215611ac357611ac2611900565b5b6000611ad184828501611a98565b91505092915050565b600073ffffffffffffffffffffffffffffffffffffffff82169050919050565b6000611b0582611ada565b9050919050565b611b1581611afa565b82525050565b6000602082019050611b306000830184611b0c565b92915050565b611b3f81611afa565b8114611b4a57600080fd5b50565b600081359050611b5c81611b36565b92915050565b60008060408385031215611b7957611b78611900565b5b6000611b8785828601611b4d565b9250506020611b9885828601611a98565b9150509250929050565b611bab81611a77565b82525050565b600082825260208201905092915050565b6000611bcd826119c5565b611bd78185611bb1565b9350611be78185602086016119e1565b611bf081611a0b565b840191505092915050565b6000606083016000830151611c136000860182611ba2565b5060208301518482036020860152611c2b8282611bc2565b9150506040830151611c406040860182611ba2565b508091505092915050565b60006020820190508181036000830152611c658184611bfb565b905092915050565b600080600060608486031215611c8657611c85611900565b5b6000611c9486828701611b4d565b9350506020611ca586828701611b4d565b9250506040611cb686828701611a98565b9150509250925092565b600060208284031215611cd657611cd5611900565b5b6000611ce484828501611b4d565b91505092915050565b611cf681611a77565b82525050565b6000602082019050611d116000830184611ced565b92915050565b600080fd5b600080fd5b7f4e487b7100000000000000000000000000000000000000000000000000000000600052604160045260246000fd5b611d5982611a0b565b810181811067ffffffffffffffff82111715611d7857611d77611d21565b5b80604052505050565b6000611d8b6118f6565b9050611d978282611d50565b919050565b600067ffffffffffffffff821115611db757611db6611d21565b5b611dc082611a0b565b9050602081019050919050565b82818337600083830152505050565b6000611def611dea84611d9c565b611d81565b905082815260208101848484011115611e0b57611e0a611d1c565b5b611e16848285611dcd565b509392505050565b600082601f830112611e3357611e32611d17565b5b8135611e43848260208601611ddc565b91505092915050565b60008060408385031215611e6357611e62611900565b5b600083013567ffffffffffffffff811115611e8157611e80611905565b5b611e8d85828601611e1e565b9250506020611e9e85828601611a98565b9150509250929050565b611eb18161198f565b8114611ebc57600080fd5b50565b600081359050611ece81611ea8565b92915050565b60008060408385031215611eeb57611eea611900565b5b6000611ef985828601611b4d565b9250506020611f0a85828601611ebf565b9150509250929050565b600067ffffffffffffffff821115611f2f57611f2e611d21565b5b611f3882611a0b565b9050602081019050919050565b6000611f58611f5384611f14565b611d81565b905082815260208101848484011115611f7457611f73611d1c565b5b611f7f848285611dcd565b509392505050565b600082601f830112611f9c57611f9b611d17565b5b8135611fac848260208601611f45565b91505092915050565b60008060008060808587031215611fcf57611fce611900565b5b6000611fdd87828801611b4d565b9450506020611fee87828801611b4d565b9350506040611fff87828801611a98565b925050606085013567ffffffffffffffff8111156120205761201f611905565b5b61202c87828801611f87565b91505092959194509250565b600060608201905061204d6000830186611ced565b818103602083015261205f8185611a1c565b905061206e6040830184611ced565b949350505050565b6000806040838503121561208d5761208c611900565b5b600061209b85828601611b4d565b92505060206120ac85828601611b4d565b9150509250929050565b7f4e487b7100000000000000000000000000000000000000000000000000000000600052602260045260246000fd5b600060028204905060018216806120fd57607f821691505b6020821081036121105761210f6120b6565b5b50919050565b7f4552433732313a20617070726f76616c20746f2063757272656e74206f776e6560008201527f7200000000000000000000000000000000000000000000000000000000000000602082015250565b60006121726021836119d0565b915061217d82612116565b604082019050919050565b600060208201905081810360008301526121a181612165565b9050919050565b7f4552433732313a20617070726f76652063616c6c6572206973206e6f7420746f60008201527f6b656e206f776e6572206f7220617070726f76656420666f7220616c6c000000602082015250565b6000612204603d836119d0565b915061220f826121a8565b604082019050919050565b60006020820190508181036000830152612233816121f7565b9050919050565b7f4552433732313a2063616c6c6572206973206e6f7420746f6b656e206f776e6560008201527f72206f7220617070726f76656400000000000000000000000000000000000000602082015250565b6000612296602d836119d0565b91506122a18261223a565b604082019050919050565b600060208201905081810360008301526122c581612289565b9050919050565b7f4552433732313a20696e76616c696420746f6b656e2049440000000000000000600082015250565b60006123026018836119d0565b915061230d826122cc565b602082019050919050565b60006020820190508181036000830152612331816122f5565b9050919050565b7f4552433732313a2061646472657373207a65726f206973206e6f74206120766160008201527f6c6964206f776e65720000000000000000000000000000000000000000000000602082015250565b60006123946029836119d0565b915061239f82612338565b604082019050919050565b600060208201905081810360008301526123c381612387565b9050919050565b7f4e487b7100000000000000000000000000000000000000000000000000000000600052601160045260246000fd5b600061240482611a77565b91507fffffffffffffffffffffffffffffffffffffffffffffffffffffffffffffffff8203612436576124356123ca565b5b600182019050919050565b60008190508160005260206000209050919050565b60006020601f8301049050919050565b600082821b905092915050565b6000600883026124a37fffffffffffffffffffffffffffffffffffffffffffffffffffffffffffffffff82612466565b6124ad8683612466565b95508019841693508086168417925050509392505050565b6000819050919050565b60006124ea6124e56124e084611a77565b6124c5565b611a77565b9050919050565b6000819050919050565b612504836124cf565b612518612510826124f1565b848454612473565b825550505050565b600090565b61252d612520565b6125388184846124fb565b505050565b5b8181101561255c57612551600082612525565b60018101905061253e565b5050565b601f8211156125a15761257281612441565b61257b84612456565b8101602085101561258a578190505b61259e61259685612456565b83018261253d565b50505b505050565b600082821c905092915050565b60006125c4600019846008026125a6565b1980831691505092915050565b60006125dd83836125b3565b9150826002028217905092915050565b6125f6826119c5565b67ffffffffffffffff81111561260f5761260e611d21565b5b61261982546120e5565b612624828285612560565b600060209050601f8311600181146126575760008415612645578287015190505b61264f85826125d1565b8655506126b7565b601f19841661266586612441565b60005b8281101561268d57848901518255600182019150602085019450602081019050612668565b868310156126aa57848901516126a6601f8916826125b3565b8355505b6001600288020188555050505b505050505050565b600081905092915050565b60006126d5826119c5565b6126df81856126bf565b93506126ef8185602086016119e1565b80840191505092915050565b600061270782856126ca565b915061271382846126ca565b91508190509392505050565b7f4552433732313a207472616e736665722066726f6d20696e636f72726563742060008201527f6f776e6572000000000000000000000000000000000000000000000000000000602082015250565b600061277b6025836119d0565b91506127868261271f565b604082019050919050565b600060208201905081810360008301526127aa8161276e565b9050919050565b7f4552433732313a207472616e7366657220746f20746865207a65726f2061646460008201527f7265737300000000000000000000000000000000000000000000000000000000602082015250565b600061280d6024836119d0565b9150612818826127b1565b604082019050919050565b6000602082019050818103600083015261283c81612800565b9050919050565b7f4552433732313a20617070726f766520746f2063616c6c657200000000000000600082015250565b60006128796019836119d0565b915061288482612843565b602082019050919050565b600060208201905081810360008301526128a88161286c565b9050919050565b7f4552433732313a207472616e7366657220746f206e6f6e20455243373231526560008201527f63656976657220696d706c656d656e7465720000000000000000000000000000602082015250565b600061290b6032836119d0565b9150612916826128af565b604082019050919050565b6000602082019050818103600083015261293a816128fe565b9050919050565b7f4e487b7100000000000000000000000000000000000000000000000000000000600052601260045260246000fd5b600061297b82611a77565b915061298683611a77565b925082820390508181111561299e5761299d6123ca565b5b92915050565b60006129af82611a77565b91506129ba83611a77565b92508282019050808211156129d2576129d16123ca565b5b92915050565b600081519050919050565b600082825260208201905092915050565b60006129ff826129d8565b612a0981856129e3565b9350612a198185602086016119e1565b612a2281611a0b565b840191505092915050565b6000608082019050612a426000830187611b0c565b612a4f6020830186611b0c565b612a5c6040830185611ced565b8181036060830152612a6e81846129f4565b905095945050505050565b600081519050612a8881611936565b92915050565b600060208284031215612aa457612aa3611900565b5b6000612ab284828501612a79565b9150509291505056fea26469706673582212204ba6643d5e49238715468d9123c029e0effee7228dc69b6f63bb59209688341664736f6c63430008110033",
  "linkReferences": {},
  "deployedLinkReferences": {}
}